:020000040800F2
:10000000580A00243903000843300008972E0008DE
:1000100041300008C3040008493500080000000012
:100020000000000000000000000000008B3300080A
:10003000C504000800000000453000088D330008AA
:100040005303000853030008530300085303000838
:100050005303000853030008530300085303000828
:100060005303000853030008530300085303000818
:100070005303000853030008530300085303000808
:10008000530300085303000853030008CD0400087D
:100090002505000853030008530300085303000814
:1000A00053030008530300085303000853030008D8
:1000B00053030008530300085303000853030008C8
:1000C00053030008530300085303000853030008B8
:1000D00053030008530300085303000853030008A8
:1000E00053030008530300080000000053030008F6
:1000F0005303000853030008530300085303000888
:100100005303000853030008530300085303000877
:100110005303000853030008530300085303000867
:100120005303000853030008530300085303000857
:100130005303000853030008530300085303000847
:1001400000000000000000000000000000000000AF
:100150005303000853030008530300085303000827
:100160005303000853030008530300085303000817
:100170005303000853030008530300085303000807
:1001800053030008530300085303000853030008F7
:1001900053030008530300085303000853030008E7
:1001A00053030008530300085303000853030008D7
:1001B00053030008530300085303000853030008C7
:1001C00053030008530300085303000853030008B7
:1001D00053030008530300085303000853030008A7
:1001E0005303000853030008530300085303000897
:1001F0005303000853030008530300085303000887
:100200005303000853030008530300085303000876
:100210005303000853030008530300085303000866
:1002200053030008530300085303000800000000B4
:1002300053030008530300080000000053030008A4
:100240005303000853030008530300085303000836
:100250005303000853030008530300085303000826
:100260005303000853030008530300085303000816
:100270005303000853030008530300080000000064
:100280005303000853030008530300080000000054
:10029000000000005303000800F002F800F03CF8F2
:1002A0000AA090E8000C82448344AAF10107DA45D1
:1002B00001D100F031F8AFF2090EBAE80F0013F0E7
:1002C000010F18BFFB1A43F001031847B83B0000A9
:1002D000D83B0000103A24BF78C878C1FAD852073A
:1002E00024BF30C830C144BF04680C6070470000B0
:1002F0000023002400250026103A28BF78C1FBD82F
:10030000520728BF30C148BF0B6070471FB503F0CC
:100310004AFD1FBD10B510BD00F09EF81146FFF755
:10032000F5FF03F05FFA00F0BCF803B4FFF7F2FF4B
:1003300003BC00F0BFF800000948804709480047A7
:10034000FEE7FEE7FEE7FEE7FEE7FEE7FEE7FEE785
:10035000FEE7FEE704480549054A064B70470000E2
:100360006D3400089902000858040024580A00243B
:10037000580600245806002410B5203AC0F00B801F
:10038000B1E81850203AA0E81850B1E81850A0E899
:100390001850BFF4F5AF5FEA027C24BFB1E81850F3
:1003A000A0E8185044BF18C918C0BDE810405FEA63
:1003B000827C24BF51F8043B40F8043B08BF7047DF
:1003C000D20728BF31F8023B48BF11F8012B28BFE4
:1003D00020F8023B48BF00F8012B70474FF00002A5
:1003E00000B5134694469646203922BFA0E80C502B
:1003F000A0E80C50B1F12001BFF4F7AF090728BF06
:10040000A0E80C5048BF0CC05DF804EB890028BF81
:1004100040F8042B08BF704748BF20F8022B11F0AA
:10042000804F18BF00F8012B704770477047704726
:1004300010B500F009F8006810BD10B5044600F0D2
:1004400003F8046010BD000000487047F403002466
:1004500000487047F40300247546FFF7F9FFAE46E5
:1004600005006946534620F00700854618B020B5C0
:10047000FFF770FFBDE820404FF000064FF0000787
:100480004FF000084FF0000B21F00701AC46ACE83C
:10049000C009ACE8C009ACE8C009ACE8C0098D46A9
:1004A000704710B50446AFF300802046BDE8104009
:1004B000FFF73BBF01491820ABBEFEE72600020054
:1004C0007047FEE7704772B6FEE70000014800F093
:1004D000F1BA00002C02002470B5056800220F4814
:1004E0004FF0804308240560C0E90132C0E90342AF
:1004F00042618261C26102620020094A0B5C1354AE
:10050000401C0828FADB0549054A01F1480000F0C3
:10051000ADF9002800D0012070BD0000E4010024E6
:1005200034000024014800F0C5BA0000CC020024C9
:1005300070B5056800220F484FF08043082405601D
:10054000C0E90132C0E9034242618261C2610262D4
:100550000020094A0B5C1354401C0828FADB0549AB
:10056000054A01F1C40000F081F9002800D0012003
:1005700070BD00000802002434000024F0B50368B8
:100580004FF6FC716D4C426BD3F884508D4345EAB5
:100590008205C3F88450036853F8845F068F25F4FE
:1005A0007F0545EA06451D60836B654D9F1802680F
:1005B000D2F888308B4343EA8703C2F88830026858
:1005C00052F8883F868F23F4FE0343EA0643136004
:1005D000066856F8A03FC26B8B4307EB420243EA22
:1005E00082033360076857F8A03FB0F8406023F4F7
:1005F000FE0343EA06433B60D0E9103603FB0622C4
:100600000368D3F8B0608E4346EA8206C3F8B06050
:100610000368B0F84860D3F8B07027F4FE0747EAE3
:100620000646C3F8B060D0E91267036806FB0722EC
:10063000D3F8AC608E4346EA8206C3F8AC60D0E9DA
:100640001467036806FB0722D3F8F0608E4346EA7E
:100650008206C3F8F0600368B0F85860D3F8F07011
:1006600027F47C1747EA0646C3F8F0600368876DF5
:1006700053F8C06F02EB47028E4346EA82011960CD
:100680000168B0F85C20D1F8C03023F47C1343EA51
:100690000242C1F8C020016890F86020D1F8C03053
:1006A00023F07C5343EA0262C1F8C020416B04EBA3
:1006B0008101C166826B01EB82020267C36B02EBB0
:1006C000C3024267D0E91034634302EB83028267BE
:1006D000D0E91234634302EB8302C267D0E91434D9
:1006E000634302EB8302C0F88020836D02EBC303F7
:1006F000C0F88430C46D826E544303EB8403C0F8A9
:100700008830046E544303EB8402C0F89020AA4260
:100710000AD9D0F89C20032142F02002C0F89C2086
:1007200080F898100120F0BD002200E004C1D0F84C
:1007300090308B42FAD80020F0BD000000AC0040A1
:10074000FCD30040F0B58E680C69D1E9005744EA4B
:100750000604DFB145F080452C43866ED1E906C51D
:100760004F695E4391F8203045EA0C05B1F80CC0A2
:10077000D0F884E0002047EA0363104F1D430EEBDE
:10078000860345EA0C45E3E8024511E044EA854466
:10079000E3E71418155CA67894F803C094F801E018
:1007A000360445EA0C6446EA0E252C43001D10C3AE
:1007B000CC683C5D8442ECD8F0BD0000183E0008D7
:1007C00070B5044600F034FE0546601C02D00448B3
:1007D0000078044400F02CFE401BA042FAD370BD08
:1007E0003C00002410B590F89830012B09D0022B62
:1007F00007D0D0F89C1041F00201C0F89C100120F5
:1008000010BD03689C6D0C4203D1DC6D44F0010403
:1008100004E09C6D31EA04041FD00324DC658B05E1
:1008200005D50368D3F8E0401443C3F8E0404B0516
:1008300005D50368D3F8E4401443C3F8E4400068E6
:10084000084A01EA0203446D074A1C4344651068E4
:1008500040EA91701060002010BDDC6D44F002048D
:10086000DCE70000FFFFCF3F14A8004070B504464E
:1008700090F89800022804D0D4F89C0040F00800BA
:100880000DE02068D0F8C03013F07C5F0BD0D0F8BA
:10089000C4309B020CD5D4F89C0040F40070C4F81E
:1008A0009C00012070BDD4F89C0040F02000F6E7C9
:1008B000D0F8C400C0F3044520462B46FFF742FFA2
:1008C00021680120A840C1F8D000C4F8940000209D
:1008D00070BD704730B590F89850039C012D07D03B
:1008E000D0F89C1041F00401C0F89C10012030BDEC
:1008F0000D01016845EA820040EA43002043C1F847
:100900008000002030BD704770470000006840291B
:1009100005D0D0F8B40000BF00F07F007047D0F8D9
:10092000A400F9E7F0B590F898500024022D04D007
:10093000D0F89C1041F0080129E0402905D0412958
:1009400029D0056D8D4219D942E00568D5F8A0601F
:1009500016F4FE0F12D0D5F8A460760613D0D5F8A1
:10096000A460F60105D5D5F8A06016F0004F00D5BB
:100970000124D5F8A470466F456C24E0D0F89C1093
:1009800041F0200103E0D0F89C1041F48071C0F8E0
:100990009C100120F0BD0568D5F8B06016F4FE0F7C
:1009A000ECD0D5F8B4607606EDD0D5F8B460F60199
:1009B00005D5D5F8B06016F0004F00D50124D5F864
:1009C000B470866FC56CC7F305273C44654302E0ED
:1009D000456DC66F4D4306EB85052E6816F08046C3
:1009E00056602E6836D026F060461660D5F800C0F6
:1009F00000262E4F0CF0005CC2F808C0D5F800C0ED
:100A00000CF0004CC2F810C0B5F804C01FFA8CFC02
:100A1000C2F81CC0D5F804C0CCF3034CC2F80CC01B
:100A2000D5F804C00CF4801CC2F814C0D5F804C07A
:100A30000CF4001CC2F818C0D5F804C0CCF3066C46
:100A4000C2F820C0D5F804C008354FEADC7CC2F8F3
:100A500024C008E0C6F38A46C7E700BF15F806C001
:100A600003F806C0761CD2F80CC017F80CC0B445C9
:100A7000F4D840290AD041290CD020294FF0010296
:100A80000CD200688A40C0F898200DE00068C0F8D9
:100A9000A84009E00068C0F8B84005E0006801F02F
:100AA0001F018A40C0F89C200020F0BD183E0008BD
:100AB000704700002DE9FF5FDFF80CB304460BF12F
:100AC0000401DBF8000025680F68AA468007D5F806
:100AD0005090696DD5F850806E6D2A6DD5F854C070
:100AE0002B6D00EA8770009009F470496F6D286DD6
:100AF00001EA09010191DAF85410DAF85490DAF8B1
:100B0000505008F00F0806EA0806029602F0F002BC
:100B100003F071536FEA09061F4000F060700CEAA1
:100B2000020CCDF80CC0F20501EA00090CD4E84330
:100B3000C00509D400214FF48073CAF85030CBF8B7
:100B400000102046FFF7B4FF700512D4E8434005BB
:100B50000FD4206800234FF48068D0F8DC20D0F850
:100B6000E410C0F85080CBF800301140204600F06F
:100B700039FBDFF858A2009850B12268830F00EAD1
:100B80000A001065CBF8003020460099FFF7A1FE5F
:100B9000019850B12268830F00EA0A001065CBF873
:100BA00000302046019900F01FFB029850B12268E6
:100BB000830F00EA0A001065CBF800302046029946
:100BC00000F0C0FA039850B12268830F00EA0A00CF
:100BD0001065CBF800302046039900F0E3FA3005A9
:100BE0000CD4E843000509D4236800204FF40062C8
:100BF0001A65CBF80000204600F0F7FAB00512D4D1
:100C0000E84380050FD4206800234FF40078D0F823
:100C1000D820D0F8E010C0F85080CBF80030114058
:100C2000204600F0E0FA30030CD4E843000309D476
:100C3000236800204FF400221A65CBF800002046FC
:100C400000F07EFAF0030CD4E843C00309D4236813
:100C500000204FF480321A65CBF80000204600F0E7
:100C6000C0FA70030CD4E843400309D42268002082
:100C70004FF480231365CBF80000204600F0B0FA53
:100C8000B0030FD4E84380030CD4236800204FF452
:100C900000321A65CBF80000D4F89C0040F08000C8
:100CA000C4F89C00B9F1000F0BD022684FEA997389
:100CB00009EA0A001065CBF8003049462046FFF7E4
:100CC00023FE5FB12268BB0F07EA0A001065CBF86C
:100CD0000030D4F89C003843C4F89C003C4920689C
:100CE000884268D1606881468068800763D0D9F8FF
:100CF0002060D9F82410D9F82080D9F82400D9F838
:100D000020C0D9F82470D9F82030D9F82450D9F867
:100D1000202003F4FC4306F00F0AD9F824601D409C
:100D2000D9F824B008F030080CF4C07C02F4F022AA
:100D300011EA0A0100EA080807EA0C0706EA0206B7
:100D4000D9F820A004D0C9F82010204600F045FAB8
:100D5000B8F1000005D0616808624146204600F005
:100D60003EFA6FEA0B0040060ED46FEA0A00400616
:100D70000AD460684021C36BC26B01622046190C23
:100D800002F03F0200F02AFA2FB16068076239468C
:100D9000204600F021FA35B160680562D4F89C0065
:100DA0002843C4F89C0036B160680662D4F89C0001
:100DB0003043C4F89C00D4F89C00002802D02046A0
:100DC000FFF7A1FDBDE8FF9F10A80040FFFFCF3F48
:100DD00000A000402DE9F04194B08D494C2204461A
:100DE0006846FFF7C9FA64B18A4D2068A84202D16B
:100DF00000F58070606094F898004FF0000820B112
:100E000008E0012014B0BDE8F081204684F8998004
:100E100000F002F92068816921F01001816100F081
:100E200007FB0327064604E000F002FB801B0A28AC
:100E300011D8206880690007F6D42068816941F0E4
:100E40000101816100F0F4FA06460DE000F0F0FACD
:100E5000801B0A2808D9D4F89C0040F00100C4F88F
:100E60009C0084F89870CCE720688069C007EDD0BA
:100E70002068816941F002018161207C012820689D
:100E8000816937D041F040018161607C0128206890
:100E9000816932D021F480418161A07C01282068E1
:100EA00081692DD041F4805181612068A2688169F7
:100EB00021F44071114381612068816921F0A4010E
:100EC00081612068016921F010010161E068012859
:100ED00019D010B302281BD02068816941F080012D
:100EE00081612068016941F010010161E068032817
:100EF0000ED012E021F04001C6E741F48041CBE77B
:100F000021F48051D0E72068816941F0040103E0B9
:100F10002068816941F020018161207E6FF0FF022D
:100F2000D4E90773A68A1102400602EB0727A0F155
:100F30000070384327685B1E184301EB06463043B8
:100F4000F861A068B0F5407F11D104F12800A68CAB
:100F50006FF00F0C89C801EB0641401E02EB032223
:100F6000104322680CEB071318430843D060206E2F
:100F700030B12068626ED0F8C0101143C0F8C010C4
:100F8000D4E917126846D14209D02168A36E51F8FE
:100F9000C82F50F8233022F007021A430A60216C50
:100FA00049B12168626C51F8BC3F50F8226023F0CF
:100FB000070232430A60A16C51B12168E36C51F819
:100FC000BC2F50F8233022F0700242EA03120A606C
:100FD000216D51B12168626D51F8BC3F50F822007B
:100FE00023F4E06242EA002008602068A84204D1AD
:100FF0006068816821F003018160C4F89480012158
:10100000C4F89C8084F898102046FFF7B7FAF9E6F8
:10101000283E000800A000402DE9F043B7B080460C
:10102000142130A8FFF7DAF9C0216846FFF7D6F996
:101030003E4D0026D8F800004FF080513C4A0C3D50
:10104000394F4FF00208394C90424FF0090931D125
:1010500000201C914A13CDE90020684600F00AFBED
:1010600008B1FFF730FA3868401C3860012807D112
:10107000206840F480702060206800F48070359013
:10108000286840F00100286028684FF4C052309270
:1010900030A900F00100CDE931863396CDE93490D6
:1010A000244800F0A3F800220521132000F086FA5E
:1010B000132034E0204A904233D100201C914FF499
:1010C0000042CDE90020684600F0D4FA08B1FFF7ED
:1010D000FAF93868401C3860012807D1206840F4CC
:1010E00080702060206800F480703590286840F09F
:1010F0000200286028684FF44052309230A900F076
:101100000200CDE931863396CDE934900B4800F0EA
:101110006DF800220521142000F050FA142000F090
:101120003FFA37B0BDE8F08330000024EC440258A9
:1011300000A000400000025800A400400004025833
:101140007047000070B58CB00646C80726D0144C16
:101150004FF0804540213046FFF7D8FB00281DD0D6
:1011600040216A460AAB3046FFF7DCFB002815D168
:10117000A068401CA0600098E060020AC0F304610F
:1011800021706270A070DDE90A12A162E262019929
:10119000A942DFD10AA902F0A3FCDBE70CB070BDC5
:1011A00000000024704790F89810012907D0D0F86B
:1011B0009C1041F00401C0F89C10012070470221EE
:1011C00080F89810002201688B6923F001038B617D
:1011D000C0F89C20104670477047704770477047B2
:1011E0007047704770477047704770472DE9F84F58
:1011F00003247D4D00234FF001094FF0B04B4FF019
:101200000F0AE9E009FA03F73A4076D00E7906F0C2
:101210000306012E01D0022E18D1D0F808C04FEAE3
:10122000430ECE6804FA0EF82CEA080C06FA0EF605
:1012300046EA0C068660D0F804C00E792CEA070C4A
:10124000C6F300169E4046EA0C0646600E79F64349
:10125000B6070BD0C6684FEA43088F6804FA08FC4B
:1012600026EA0C0607FA08F73743C7600E7906F03E
:101270000306022E12D1DE080F694FEA437C00EB11
:101280008606B646366A4FEADC6C0AFA0CF807FAAC
:101290000CF726EA08063743CEF820700F79066867
:1012A0004FEA430807F0030704FA08FC07FA08F7B7
:1012B00026EA0C06374307604E6816F4403F1CD000
:1012C0004A4E376847F00207376036689F0706F0D6
:1012D0000206009623F0030606F1B046B6463F0F1D
:1012E000D6F80864DFF808810AFA07FC404526EAC8
:1012F0000C0603D14FF0000C41E06CE0DFF8F4C0C5
:10130000604502D14FF0010C39E0DFF8ECC06045D8
:1013100002D14FF0020C32E0DFF8E0C0604502D1AC
:101320004FF0030C2BE0DFF8D8C0604502D14FF03E
:10133000040C24E0DFF8CCC0604502D14FF0050C6E
:101340001DE0DFF8C4C0604502D14FF0060C16E086
:10135000DFF8B8C0604502D14FF0070C0FE0DFF8AE
:10136000B0C0604502D14FF0080C08E0DFF8A4C01F
:10137000604502D14FF0090C01E04FF00A0C0CFA65
:1013800007FC4CEA060CCEF808C44F68DBF8006096
:10139000FF0226EA020600D516435F46CBF800603E
:1013A000D1F804C0DBF804605FEA8C2C26EA020660
:1013B00000D516437E606E684F6826EA0206BF03BA
:1013C00000D516436E602E684F6826EA0206FF03BA
:1013D00000D516432E605B1C0A6832FA03F67FF4D0
:1013E00011AFBDE8F88F000080000058F4440258A7
:1013F000000002580004025800080258000C02586D
:10140000001002580014025800180258001C02581C
:1014100000200258002402580AB181617047090473
:10142000FBE7000001480068000C70470010005CFA
:1014300001488068704700003C0000240248816831
:1014400002781144816070473C000024032010B5ED
:1014500000F0D4F800F012FF0F4A10491468136826
:10146000C4F3032203F00F038A5CC95C02F01F027D
:1014700001F01F01D0400A4A20FA01F11160094928
:1014800008600F2000F010F808B1012010BD00F036
:1014900079F8002010BD000018440258743E00087E
:1014A0004C0000244800002470B50D4D04462878F7
:1014B000A0B14FF47A71B1FBF0F00A490968B1FBB1
:1014C000F0F001F0D5FC48B9102C07D200222146DB
:1014D000501E00F073F800206C6070BD012070BDDC
:1014E0003C00002448000024154BF0B5083B42782E
:1014F00013491A600B680A1F23F001030B6043684D
:101500001360057BC67A827A437B2D07847B45EA8C
:101510000665C77B90F809C0067A90F800E045EAB6
:10152000C24040EA834040EA444040EA074040EA83
:101530000C2040EA460040EA0E000860F0BD0000C2
:10154000A0ED00E0BFF35F8F044800210368034A69
:1015500023F48033036070321160704724ED00E0A3
:10156000074A40F00100064970321060086840F4F4
:1015700080300860BFF34F8FBFF36F8F704700005C
:1015800024ED00E0054808B5016841F00201016062
:10159000006800F00200009008BD0000F44402580A
:1015A000002809DB410900F01F028900012001F138
:1015B000E0219040C1F80001704700000E4BF0B4EC
:1015C0001B680D46C3F30223C3F10706042E00D99E
:1015D0000426191D072901D2002300E0DB1E012487
:1015E00004FA06F19C40491E2940641E99401440AB
:1015F0002143F0BC01F0A9BF0CED00E0064900F06A
:10160000070210B54FF6FF040868044B204040EA7B
:1016100002201843086010BD0CED00E00000FA0540
:10162000134970B50A68D243520705D5096801F01D
:101630000701814213D118E00A6822F00702024331
:101640000A60FFF7F5FE0A4D4FF47A760446083D2E
:1016500007E000BFFFF7ECFE001BB04201D90120FC
:1016600070BD2868C0438004F4D4002070BD000021
:101670000C4802582DE9FE4F0546DFF8E48350F888
:10168000081B0024F64FC943019005F128002646A7
:1016900008F12408009008011DD4A86E50B1B0F5DF
:1016A000801F0CD0B0F5001F0ED0B0F5401F1ED02B
:1016B00001240FE0386840F40030386017E00198EA
:1016C000022101F0C1FC03E00098022101F04CFD71
:1016D00004000CD026462888C043C00523D4A86D3A
:1016E00005281ED2DFE800F00C11161B1B00AA6EA5
:1016F000D8F8001021F440111143C8F80010EAE7AF
:10170000386840F40030386009E00198002101F0A9
:101710009BFC03E00098002101F026FD044674B113
:1017200000E0012426462888C043800528D4E86DBF
:1017300080281ED00CDC90B140280ED114E0AA6D98
:10174000D8F8001021F007011143C8F80010EAE7AB
:10175000C02813D0B0F5807F10D001240FE0386886
:1017600040F40030386009E00198002101F06CFC81
:1017700003E00098002101F0F7FC04469CB12646E6
:101780002888DFF8DC92C04309F12C0940052CD4ED
:10179000D5F8A800B0F5800F20D00DDCA0B1B0F5D1
:1017A000001F0FD115E0EA6DD8F8001021F4E071A8
:1017B0001143C8F80010E3E7B0F5C00F13D0B0F53F
:1017C000000F10D001240FE0386840F4003038607A
:1017D00009E00198002101F037FC03E000980021A6
:1017E00001F0C2FC04467CB126462888C0430005AF
:1017F0002DD4D5F8AC00B0F1007F21D00EDCA8B11B
:10180000B0F1807F10D116E0D5F8A820D9F80010EB
:1018100021F460011143C9F80010E6E7B0F1407F00
:1018200013D0B0F1806F10D001240FE0386840F47D
:101830000030386009E00198002101F005FC03E068
:101840000098002101F090FC044674B126462868F7
:10185000C04380011FD4E86CD8B110280FD02028D5
:1018600012D0302815D0012414E0D5F8AC20D9F8D6
:10187000001021F0E0611143C9F80010E7E7386873
:1018800040F40030386004E00198022101F0DCFBF4
:10189000044674B126462888C043C0042BD4286E61
:1018A000B0F5005F20D00DDCA0B1B0F5805F0FD1A6
:1018B00015E06B48EA6C2030016821F030011143DB
:1018C0000160E8E7B0F5405F13D0B0F5804F10D06D
:1018D00001240FE0386840F40030386009E00198D6
:1018E000002101F0B1FB03E00098002101F03CFC75
:1018F00004468CB126462888C043800429D4686EEB
:10190000B0F5403F23D010DC08B3B0F5803F14D0D1
:10191000B0F5003F0FD115E02A6ED8F8001021F481
:10192000E0411143C8F80010E5E7B0F5802F0ED074
:10193000B0F5A02F0BD001240AE00198012101F09D
:1019400083FB03E00098012101F00EFC044694B1F2
:1019500026462888C04340042AD4D5F8B000B0F108
:10196000405F23D010DC08B3B0F1805F14D0B0F139
:10197000005F0FD115E06A6ED8F8001021F4E02165
:101980001143C8F80010E4E7B0F1804F0ED0B0F179
:10199000A04F0BD001240AE00198012101F054FB73
:1019A00003E00098012101F0DFFB044674B12646F4
:1019B0002888C04300041FD4286FD8B1B0F1805FDD
:1019C0000ED0B0F1005F10D0012414E0D5F8B020A3
:1019D000D9F8001021F0E0411143C9F80010E7E701
:1019E000386840F40030386004E00198012101F0CB
:1019F0002BFB044674B126462868C043C0011ED4A0
:101A0000A86CD0B101280ED0022811D0032814D020
:101A1000012413E02A6FD8F8001021F0405111433F
:101A2000C8F80010E8E7386840F40030386004E097
:101A30000198022101F008FB0446ACB12646286853
:101A4000DFF81CB0C043ABF11C0B400252D4054878
:101A5000016841F480710160FFF7EAFC824611E001
:101A60002C44025800480258FA48AA6C016821F038
:101A7000030111430160E2E7FFF7DAFCA0EB0A0083
:101A8000642835D8F4480068C005F5D58CBBDFF86C
:101A9000C4A3B5F8B4100AF1240ADAF8000001F47E
:101AA000407100F44070884211D0DAF80010DAF882
:101AB000002021F4407142F48032CAF80020DAF8A4
:101AC000002022F48032CAF80020CAF80010D5F8AD
:101AD000B400B0F5807F1AD1FFF7AAFC029012E0A3
:101AE000FFF7A6FC0299411A41F2883081420AD9D7
:101AF000032426462878DFF85CA3C0430AF1080ACD
:101B0000C00721D03CE0DAF800008007E8D5D5F81E
:101B1000B410C1F30120032858460DD0016821F408
:101B20007C510160B5F8B420DAF80010C2F30B0262
:101B30001143CAF80010DDE7C84A036802EA11122F
:101B400023F47C511143ECE7E86F182816D005DC2C
:101B5000A0B1082808D0102804D10AE020280DD010
:101B600028280BD001240AE00198012101F06CFA29
:101B700003E00098012101F0F7FA044664B126461B
:101B80002878C04380071ED4A86F062819D2DFE842
:101B900000F0160C11161616EA6FDAF8001021F094
:101BA00038011143CAF80010EAE70198012101F059
:101BB0004BFA03E00098012101F0D6FA04467CB10B
:101BC00000E0012426462878C04340071FD4D5F8FA
:101BD0009400062819D2DFE800F0160C111616162C
:101BE000AA6FDAF8001021F007011143CAF80010BB
:101BF000E9E70198012101F027FA03E000980121AB
:101C000001F0B2FA0446A4B100E001242646287887
:101C1000C04380062BD4D5F89000B0F1405F24D0AB
:101C200011DC10B3B0F1805F15D0B0F1005F10D1BE
:101C300016E0D5F89420D9F8001021F007011143DF
:101C4000C9F80010E3E7B0F1804F0ED0B0F1A04F1B
:101C50000BD001240AE00198002101F0F5F903E01E
:101C60000098022101F080FA044694B126462878B3
:101C7000C04340062BD4D5F89C00B0F5406F24D06B
:101C800011DC10B3B0F5806F15D0B0F5006F10D136
:101C900016E0D5F89020DAF8001021F0E041114369
:101CA000CAF80010E3E7B0F5805F0ED0B0F5A05F92
:101CB0000BD001240AE00198002101F0C5F903E0EE
:101CC0000098022101F050FA044694B12646287883
:101CD000C04300062BD4D5F8A000B0F5C04F24D0E7
:101CE00011DC10B3B0F5005F15D0B0F5804F10D106
:101CF00016E0D5F89C20D9F8001021F4E0511143EA
:101D0000C9F80010E3E7B0F5004F0ED0B0F5204F52
:101D10000BD001240AE00198002101F095F903E0BD
:101D20000098022101F020FA044654B12646287892
:101D3000C04300071ED4D5F88400B0F5805F0AD0F8
:101D40000FE0D5F8A020D9F8001021F4604111432C
:101D5000C9F80010EBE70098022101F005FA00B184
:101D60000126D5F88420DAF8001021F440511143FF
:101D7000CAF800102878C043C00613D4D5F89800DC
:101D8000B0F5807F05D10098022101F0EDF900B196
:101D90000126D5F89820D9F8001021F4407111439C
:101DA000C9F800102868C043000316D4D5F8A40071
:101DB00038B1B0F5803F09D0B0F5003F0BD0012419
:101DC0000AE00198002101F03FF903E000980221A8
:101DD00001F0CAF904468CB126462868C043400386
:101DE00022D4D5F88800B0F5801F11D0B0F5001FBF
:101DF00013D0B0F5401F15D0012414E0D5F8A4206D
:101E0000D9F8001021F440311143C9F80010E4E77B
:101E1000386840F40030386004E00098012101F097
:101E2000A3F904465CB126462868C043C00323D406
:101E3000286DA8B1B0F5803F17D001241BE0D5F87C
:101E40008820DAF8001021F440111143CAF800107C
:101E5000EAE700004C44025800480258CFFFFF0058
:101E6000386840F40030386004E00198022101F045
:101E7000EBF80446E4B126462868C043800005D448
:101E80000098022101F070F900B101262868C043D2
:101E900080031BD4D5F88000B0B1B0F5807F0FD09F
:101EA000B0F5007F10D0B0F5407F0DD001240CE0DC
:101EB0005A482A6D016821F4803111430160DBE743
:101EC000386840F400303860ECB326462868C043D8
:101ED000C00207D46A6FD8F8001021F00041114306
:101EE000C8F800102868C043C00008D4D5F8B8204E
:101EF000DBF8001021F480411143CBF80010286872
:101F0000C043800207D4EA6ED8F8001021F0807137
:101F10001143C8F800102868C04340000CD4DBF817
:101F2000001021F40041CBF80010DBF80010D5F8C8
:101F3000BC201143CBF800102868C04308D43748B0
:101F40006A6D016800E018E021F040511143016022
:101F50002868C043000208D4D5F88C20DAF80010B5
:101F600021F440011143CAF8001028790024C0432D
:101F700000F0010020430AD00FE0D5F88020DAF805
:101F8000001021F440711143CAF800109EE7019837
:101F9000002101F059F800B106462879C04300F04D
:101FA0000200204305D10198012101F04DF800B154
:101FB00006462879C04300F00400204305D101986B
:101FC000022101F041F800B106462879C04300F033
:101FD0000800204305D10098002101F0C5F800B1A8
:101FE00006462879C04300F01000204305D1009830
:101FF000012101F0B9F800B106462879C04300F08C
:102000002000044304D10098022101F0ADF800B98A
:1020100016B10120BDE8FE8F0020FBE74C440258BA
:102020002DE9F05F04000F467ED0DFF83882D8F843
:10203000000000F00F00B8420CD2D8F8001021F0D8
:102040000F013943C8F80010D8F8000000F00F0065
:10205000B84269D12078844D40070AD520692968A3
:1020600001F07001884204D9296821F07001014310
:10207000296020787C4E361D00070AD560693168DA
:1020800001F07001884204D9316821F070010143E8
:1020900031602078C0060AD5A069316801F4E0619A
:1020A000884204D9316821F4E0610143316020782D
:1020B000DFF8B4B180060BF1080B0CD5E169584686
:1020C000DBF8002002F07002914204D9026822F08D
:1020D00070020A430260207880070AD5E068296808
:1020E00001F00F01884204D9296821F00F01014352
:1020F00029602078C0073ED05B49A268286818395B
:1021000020F47060104328606068022818D003280B
:1021100019D00968012819D0490700294ADADFF8DF
:1021200048A1AAF1080A00E044E0DAF8002022F011
:1021300007020243CAF80020FFF77AF9814612E04D
:1021400009688903E9E709688901E6E7C905E4E761
:10215000FFF76EF9A0EB090141F28830814202D904
:102160000320BDE8F09F6168DAF8000000F0380055
:10217000B0EBC10FECD1207880070AD5E068296860
:1021800001F00F01884204D2296821F00F010143B8
:102190002960D8F80010404601F00F01B9420BD970
:1021A000016821F00F0139430160006800F00F0061
:1021B000B84201D00120D4E7207840070AD5206931
:1021C000296801F07001884204D2296821F0700169
:1021D00001432960207800070AD56069316801F061
:1021E0007001884204D2316821F0700101433160EE
:1021F0002078C0060AD5A069316801F4E061884200
:1022000004D2316821F4E061014331602078800616
:102210000CD5E1695846DBF8002002F070029142CB
:1022200004D2026822F070020A43026000F026F82D
:102230000E492A682B68C2F3032203F00F038A5C5D
:10224000C95C02F01F0201F01F01D040084A20FAC9
:1022500001F111600749086007480068BDE8F05FB8
:10226000FFF722B90020005218440258743E0008BB
:102270004C0000244800002440000024454970B56B
:1022800045480968434B103B11F0380208D0011152
:10229000082A03D0102A0BD0182A0BD0084670BD8C
:1022A00019688906FBD51968C1F3C101C84070BD22
:1022B0003A4870BD3749374D18310C1D24350A682E
:1022C000096826682D6802F0030406F00102C1F3D4
:1022D0000511C5F3CC0515FB02F200EE102AB8EE8D
:1022E000400AE9B32F4ADFED2E0AB7EE001A6CB1AF
:1022F000DFED2D1A012C01D0022C43D002EE101A72
:102300001068F8EE422A81EEA22A1EE01C68A4069C
:1023100011D51B6801EE901A1168C3F3C103F8EEE2
:10232000612AD84001EE900AC1F30800F8EE611A64
:1023300081EEA22A0BE001EE901ADFED1C2A00BF0D
:10234000F8EE611A106882EEA12AC0F3080001EECF
:10235000900AF8EE611A40EE201A31EE810A00E090
:1023600015E022EE000A1068C0F34620401C00EE83
:10237000900AF8EE600A80EE201ABCEEC10A10EE58
:10238000100A70BD01EE901ADFED092AD8E700208F
:1023900070BD0000104402580090D00340787D01C9
:1023A00000000039304402580024744A0024744C60
:1023B00020BCBE4B2DE9F05F04007DD0FF4F20789C
:1023C000FE4D1837DFF8F493103DC00748D0D9F818
:1023D0000000396800F03800102815D0182803D103
:1023E00001F0030002280FD06068B0F5803F12D0E2
:1023F00010B1B0F5A02F18D0286820F480302860E4
:10240000286820F4802009E02868800328D56068C7
:102410000028D2D024E0286840F48030286060682A
:1024200088B1FFF705F8064609E0286840F48020E7
:102430002860F0E7FEF7FCFF801B64286FD828684F
:102440008003F7D50CE0FEF7F3FF064605E000BF7A
:10245000FEF7EEFF801B6428F0D828688003F7D4CD
:10246000207841F20308D54E0C3E800769D5D9F893
:102470000000396810F038000ED0182801D1880704
:102480000AD0E06890B3296821F01901014329605E
:10249000FEF7CEFF824631E02868400702D5E068AB
:1024A00000288AD0E168286820F0190008432860D5
:1024B000FEF7BEFF824607E0DFE000BFFEF7B8FF91
:1024C000A0EB0A000228B9D828684007F6D500BF5B
:1024D000FEF7A8FF40451BD82069402812D031687C
:1024E00021F47C3141EA003030602AE018E000BF7E
:1024F000FEF79EFFA0EB0A0002289FD8286840073D
:10250000F6D5E5E7306820F47C3040F40030EBE7A6
:10251000207C316821F0FE4141EA0060E4E70DE1F2
:10252000286820F001002860FEF782FF824605E05F
:10253000FEF77EFFA0EB0A0002288DD8286840072E
:10254000F6D42078C0065DD5D9F80000DFF86CB26B
:10255000396800F03800ABF1040B082810D01828B7
:1025600003D101F0030001280AD0E069002828689F
:1025700038D040F080002860FEF75AFF824623E002
:102580002868C00523D5E069802876D11FE0206A3D
:10259000202821D0316821F0F84141EA8060306084
:1025A00030E000BF94F82010DBF8002022F07C52CD
:1025B00042EA0161CBF8001024E000BFFEF738FFCB
:1025C000A0EB0A00022898D82868C005F6D5FEF7C7
:1025D00029FF4045E6D8DAE7306820F0F84040F0BF
:1025E0008040DCE720F080002860FEF721FF0646EF
:1025F00005E000BFFEF71CFF801B02289DD828685D
:10260000C005F7D42078000729D56C48616964308B
:1026100000298046016811D041F001010160FEF7F8
:1026200007FF064605E000BFFEF702FF801B0228F9
:10263000C9D8D8F800008007F6D510E021F00101D4
:102640000160FEF7F5FE064605E000BFFEF7F0FE6E
:10265000801B022872D8D8F800008007F6D42078B2
:10266000800623D5A0690028286810D040F4805047
:102670002860FEF7DDFE064605E036E1FEF7D8FEEF
:10268000801B02285AD828688004F7D50EE020F471
:1026900080502860FEF7CCFE064604E0FEF7C8FE38
:1026A000801B02284AD828688004F7D42078400785
:1026B0004FD5DFF80C81D8F8001041F48071C8F8CC
:1026C0000010FEF7B5FE064605E000BFFEF7B0FEBF
:1026D000801B642832D8D8F80000C005F6D5374EE4
:1026E000A068603601280AD008B1052813D03068E8
:1026F00020F001003060306820F0040002E0306813
:1027000040F001003060A06841F2883A90B1FEF7D5
:102710008FFE80460AE0306840F004003060EEE74B
:10272000FEF786FEA0EB0801514507D83068800708
:10273000F6D50EE0FEF77CFE804607E084E000BFA1
:10274000FEF776FEA0EB080151457DD83068800782
:10275000F6D4606AB0B3DFF86480D9F8001008F1ED
:1027600020084FF6F87B08F10409C1F3C2010329E0
:10277000A8F1040A69D00228286820F08070286037
:1027800003D0FEF755FE044684E0FEF751FE0646F0
:1027900005E000BFFEF74CFE801B022877D82868B2
:1027A0008001F7D4E26A40F2F331386854F8283FE8
:1027B000884340EA02101843386004E0104402588D
:1027C00000480258B5E0217B434622894FF4FE0CB5
:1027D000208A4FF0FE474902267D521E401EA1F579
:1027E0000071C2F308088AB2761E0CEA004042EA81
:1027F00008020243504607EA06610A431A60DAF803
:10280000002022F00102CAF80020D9F80020266A30
:1028100022EA0B0242EAC602C9F80020DAF80010E8
:10282000A26921F00C011143CAF800100168E269A5
:1028300021F0020111430160016841F4803101601F
:10284000016841F4003101E021E027E00160016806
:1028500041F480210160016841F0010101602868B4
:1028600040F080702860FEF7E3FD044605E000BFFD
:10287000FEF7DEFD001B022809D828688001F7D585
:1028800057E000BFFEF7D4FD001B022802D9032049
:10289000BDE8F09F28688001F4D44AE03968012837
:1028A000D8F8000021D0A26A01F0030393421CD1A2
:1028B000E26AC1F305118A4217D1216BC0F3080205
:1028C000491E8A4211D1616BC0F34622491E9142D2
:1028D0000BD1A16BC0F30642491E914205D1E16BB9
:1028E000C0F30660491E814201D00120D0E7A16CEF
:1028F0004E46D9F80000C0F3CC00814219D0DAF876
:102900000000554620F00100CAF80000FEF790FDD7
:102910004FEA0007FEF78CFDB842FBD0A26C30688E
:1029200020EA0B0040EAC2003060286840F0010055
:1029300028600020ACE700002DE9F047040029D012
:10294000594A4FF000092068584B594D9042C4F83D
:10295000289006D0984204D0A84202D0E1680F29FE
:1029600018D8E1684FF0010AE76B0831C9080AEB93
:1029700057167143904205D0984203D0A84201D027
:10298000082907D8904203D0984201D0A84204D128
:10299000102902D90120BDE8F08794F8810020B900
:1029A000204684F8809000F085F8022084F88100A9
:1029B0002068016821F0010101602068A169826836
:1029C000B1F1806F02F4F81110D16268B2F5800F96
:1029D00001D01AB10AE0A26B22B107E0A26BB2F1FA
:1029E000805F03D1026842F4805202606068400256
:1029F00009D5E068072806D32068236D026822F411
:102A000080721A4303E02068026822F48072026038
:102A1000A66AE069E26B25683043E3680A43104325
:102A20001843A860D4E90D02D4E90581636A2569D9
:102A30001843D4F820C00A43266810432843A56DE4
:102A4000D4E90172D4E9123140EA080040EA0C00EE
:102A500038430843104318432843F060606868B95E
:102A60002068816821F4C05141F4006181602068D0
:102A7000816821F4C06141F4806181602068016D4A
:102A800021F0010101656068400206D52068626D91
:102A9000C16821F000411143C160C4F8849084F8FA
:102AA00081A0002077E7000000300140003800409E
:102AB000003C004010B5B6B00446142130A8FDF724
:102AC0008DFCC0216846FDF789FC184920688842C2
:102AD0002AD18114002018900446CDE900106846E0
:102AE000FEF7C8FD08B1FDF7EEFC1148016841F49E
:102AF00080510160006800F4805035900C48103817
:102B0000016841F001010160006830AB022100F072
:102B100001003590E020052283E81300054830A924
:102B2000CDE93342FEF762FB36B010BD0030014004
:102B3000F0440258000002582DE9FF4F0446C06BD4
:102B400081B01D4617464009401C1FFA80FBFEF766
:102B50006FFC824694F881002E46012835D10298F8
:102B600000287CD0002FFCD0002DFAD094F88000F3
:102B700001282AD04FF0010984F8809005224FF0F7
:102B8000000884F88120C4F884806766A4F86A503D
:102B9000A4F868500299E165A4F86250A4F8605066
:102BA000C4F87080C4F874802068C16821F4C02122
:102BB000C160AC492068884205D0AB49884202D048
:102BC000AA49884205D1102704E0022005B0BDE8DB
:102BD000F08F082741686FF30F0129434160206897
:102BE000016841F0010101606068B0F5800F04D117
:102BF0002068016841F400710160E0680F284CD939
:102C0000BF0838E020684169890710D57EB1F11905
:102C1000A9420CD9E16D09680162E06D001DE06513
:102C2000B4F86200401EA4F86200B4F86260206844
:102C3000416905B34269D20703D15D4510D2090449
:102C40000ED5006B616E0860606E001D6066B4F8A2
:102C50006A00401EA4F86A00B4F86A500BE0EEE087
:102C6000FEF7E6FBA0EB0A010E98814202D3401C5E
:102C700001D004E018B156EA0500C3D1C6E02046F1
:102C800000F002FBD4F8840084F8808040F4807067
:102C9000C4F8840084F88190E0E0072879D97F089F
:102CA0004BE020684169890710D57EB1F119A9422E
:102CB0000CD9E16D09880184E06D801CE065B4F8F1
:102CC0006200401EA4F86200B4F8626020684169A6
:102CD0001DB34269D20709D0008E616E0880606E14
:102CE000801C6066B4F86A00401E12E05D4515D293
:102CF0000A0413D5008E616E0880606E801C6066C9
:102D00002168098E0180606E801C6066B4F86A00DC
:102D1000801EA4F86A00B4F86A500EE0012D01D1BB
:102D20008904D9D4FEF784FBA0EB0A010E988142F6
:102D300002D3401C01D084E060B356EA0500B0D154
:102D400064E020684169890711D586B1F119A9426B
:102D50000DD9E16D097880F82010E06D401CE06528
:102D6000B4F86200401EA4F86200B4F86260206803
:102D7000416975B14269D2070DD000BF90F83000AB
:102D8000616E0870606E401C6066B4F86A00401E98
:102D900024E038E055E05D4525D20A0423D590F8BB
:102DA0003000616E0870606E401C6066216891F8AA
:102DB00030100170606E401C6066216891F8301020
:102DC0000170606E401C6066216891F830100170DF
:102DD000606E401C6066B4F86A00001FA4F86A00C8
:102DE000B4F86A500FE0042D02D211F4C04FC5D1DF
:102DF000FEF71EFBA0EB0A010E98814202D3401C95
:102E000001D01EE0E8B156EA05009AD10E9B0022DF
:102E100008212046CDF800A000F094FA28B1D4F89B
:102E2000840040F02000C4F88400204600F02CFA12
:102E300084F88190D4F8841084F8808081B10120D6
:102E4000C4E6204600F020FAD4F8842084F880807C
:102E500042F48072C4F8842084F881900320B5E69F
:102E60000020B3E60030014000380040003C004044
:102E7000401EB0F1807F10B501D3012010BD4FF08E
:102E8000E02460610F21601700F05FFB0020A0616B
:102E90000721216110BDFEE71848002170B5164CCE
:102EA0000F258160012204600526C1600824017499
:102EB0000423417481744661C0E90625C0E90842D3
:102EC00082622024C262C0E90C2181631022C0E921
:102ED0000F14C0E91131C0E91331C0E91531C0E95F
:102EE0001712C0E91913FDF775FF002803D0BDE8DC
:102EF0007040FDF7E8BA70BD00A000402C0200242D
:102F00001948002170B5174C012281600525046025
:102F10000F26C16008240174042341748174C0E940
:102F20000552C6611502C0E9084282622024C262CD
:102F300002631022C0E90D51C0E90F14C0E911313C
:102F4000C0E91331C0E91531C0E91712C0E91913FE
:102F5000FDF740FF002803D0BDE87040FDF7B3BA8D
:102F600070BD000000A40040CC02002430B587B042
:102F700014216846FDF732FA1A48016841F004014D
:102F80000160016801F004010591016841F08001D0
:102F90000160016801F080010591016841F00101C3
:102FA0000160016801F001010591016841F0020131
:102FB000016000684FF440640B4D002200F00200F5
:102FC000214605902846FEF727FA002100940120AB
:102FD000CDE90101284603916946FEF707F907B0DC
:102FE00030BD0000E0440258000802581348002198
:102FF000072310B5104C4FF08062C0E90041C0E9D2
:1030000002130161C0E90512016241628162C1627D
:1030100041638163C163016441648164C16401658A
:1030200041658165FFF788FC002803D0BDE81040AA
:10303000FDF749BA10BD0000003001406C030024C8
:10304000FEE7FEE7704700002DE9F047454D0446D6
:1030500089464FF0000A2868C04380070AD0414ED5
:10306000283E306820F080603060FEF7E1F90746C6
:10307000B04608E00120BDE8F08700BFFEF7D8F9B0
:10308000C01B022867D8D8F800000001F6D42068D9
:1030900029684FF4FE0721F47C313E0241EA0030FA
:1030A0002860207AA389B4F804C040022D4D2D4930
:1030B0005B1E227CACF1010C1035091DA0F50070DF
:1030C00080B2521ECCF3080C07EA034340EA0C001E
:1030D000184306EA0262104328600868626920F01B
:1030E000C000104308600A68A06922F02002024371
:1030F0000A60281D0A6822F010020A6002684FF672
:10310000F873E4699A4342EAC40202600868B9F1BC
:10311000000F40F010020A6011D00868B9F1010FE9
:1031200011D040F400100860D8F80000444640F088
:103130008060C8F80000FEF77BF905460DE00868DE
:1031400040F40020EFE740F48010ECE7FEF770F960
:10315000401B022801D903208DE720680001F5D526
:10316000504688E7284402582DE9F047454D04466B
:1031700089464FF0000A2868C04380070AD0414EB4
:10318000283E306820F080503060FEF751F9074645
:10319000B04608E00120BDE8F08700BFFEF748F91F
:1031A000C01B022867D8D8F800008000F6D4208819
:1031B00029684FF4FE0721F07C713E0241EA00507D
:1031C0002860207AA389B4F804C040022D4D2D490F
:1031D0005B1E227CACF1010C1835091DA0F50070B6
:1031E00080B2521ECCF3080C07EA034340EA0C00FD
:1031F000184306EA0262104328600868626920F4F6
:103200004060104308600A68A06922F4007202431B
:103210000A60281D0A6822F480720A6002684FF66C
:10322000F873E4699A4342EAC40202600868B9F19B
:10323000000F40F480720A6011D00868B9F1010FE4
:1032400011D040F080700860D8F80000444640F08B
:103250008050C8F80000FEF7EBF805460DE008685E
:1032600040F48000EFE740F40000ECE7FEF7E0F800
:10327000401B022801D903208DE720688000F5D586
:10328000504688E72844025810B5026840F26F3370
:103290005169946944F0080494610268946944F0A7
:1032A000100494610268146824F001041460026838
:1032B00014699C4314610268936823F4404393604B
:1032C00090F88120042A0CD08A060AD5D0F88420F0
:1032D00042F08002C0F884200268936943F0200322
:1032E000936190F88120032A0CD04A060AD5D0F8C1
:1032F000842042F00402C0F884200268936943F0FD
:10330000400393618A050AD5D0F8842042F0010277
:10331000C0F884200268936943F400739361C9057F
:103320000AD5D0F8841041F00801C0F88410016873
:103330008A6942F480728A610021A0F86210A0F8C4
:103340006A1010BD2DE9F0411C4616460D46074691
:10335000DDF818800AE000BFFEF76AF8A0EB08006D
:10336000A04202D3601C01D00BE054B13868406920
:1033700035EA000007D00020B042EDD00020BDE8C3
:10338000F0810320FBE70120F6E77047FEF756B80F
:1033900070B59CB04C216846FDF720F8202113A899
:1033A000FDF71CF80220FEF73BF92D4900242D48BB
:1033B0000A6822F001020A600A68026842F4404288
:1033C0000260026802F440421B9202689204FCD53B
:1033D000254A136843F002031360126802F00202E8
:1033E0001B92026842F44042026002680A6842F09E
:1033F00001020A60096801F001011B91016889045A
:10340000FCD50DF1280C0825022009900523C026C3
:103410008CE84900CDE90D05C2030F9001216846F3
:10342000CDE91054CDE900121294FEF7C3FF08B1A4
:1034300072B6FEE740201A903F210301CDE91650F5
:103440000322CDE9180313AB13A883E81600042167
:10345000FEF7E6FD002801D072B6FEE71CB070BD95
:103460002C04005818480258F44402582C48F0B56F
:103470002C4A016841F470010160106800F00F00EF
:10348000072804D2106820F00F00C01D10602649E4
:103490000020254C10340B68244D43F001030B60D1
:1034A00020600B682B400B60136803F00F03072BA1
:1034B00004D9136823F00F03DB1D13601A4C1C4A58
:1034C00018341C4B261D371D2060174C1A4D28340C
:1034D0003060261D3860371D23603B1D35601C1D84
:1034E0003A60251D2E1D1860331D22602860326051
:1034F00018600A680C4B114C22F4802260330A6079
:10350000186020686FF30F00B0F1005F03D20C4920
:103510000120C1F8080143F2D2000A490860F0BD59
:1035200088ED00E000200052004402587FEDF6EAEA
:1035300080020101000202020000FF010010005C95
:103540000080005100400052FEE7090700284FEAC2
:10355000116104DB00F1E02080F80014704700F0F6
:103560000F0000F1E02080F8141D704710B52DED1C
:10357000028BB0EE408A18EE100A00F0C7FB04463A
:10358000400010F1020F11D118EE100A00F010FCEB
:1035900000EE904A00EE100AF8EEE00AB4EE600A7F
:1035A000F1EE10FA1CBF0120FCF747FF2046BDECEE
:1035B000028B10BD0009012807D0022807D003287C
:1035C00003D0042803D00020704701207047022058
:1035D0007047000038B5114C0128009102D0022834
:1035E0000DD014E011466846FCF776FF18B1E0698B
:1035F000401CE0610BE0A069401CA0610CE011469A
:103600006846FCF795FF20B1606A401C60620120AB
:1036100038BD206A401C2062002038BD0000002414
:10362000B0F5004F02DB47F6FF7070470349884250
:1036300001DA0846704700B2704700000080FFFFC3
:103640002DE9F04105464FF6FF77DFED220A90465F
:103650000C463E462DED028B08782870087D687078
:10366000487DA870887DE87091ED010A20EE200A5F
:10367000FFF77CFFFFF7D4FFA8809FED178A94ED3A
:10368000020A20EE080AFFF771FFFFF7C9FFE88082
:1036900094ED030A20EE080AFFF768FFFFF7C0FF6A
:1036A000288194ED040AF2EE040A20EE200AFFF7C6
:1036B0005DFFFFF7B5FF6881A06928B1A8EB0006A0
:1036C000B6F5803F00D33E46AE81BDEC028BBDE82F
:1036D000F081000000007A440000C8422DE9FC4758
:1036E00004460078FA2824D16078102823D01128C5
:1036F0004AD0122829D013281BD1A578A68828469D
:1037000000F0E0F9354C00289FED330A4FF0030933
:103710004FF000074FF00108A570A68084ED020A63
:1037200036DAFDF785FE206184F80390277084F86F
:103730000180BDE8FC87A268A07861680092E26819
:1037400001926A46FFF746FFF3E7A678072E02D9F3
:103750000726002501E0002513E005EB850000EBBE
:10376000C500001D2218205CD2F80530D2F80110E7
:103770000093D2F8092001926A46FFF72BFF6D1CD7
:10378000EDB2B542E9D3D4E7BDE8FC4700F038B963
:10379000FDF74EFEE060276184F80380677084F8CF
:1037A00000802846FFF706FF0D49320A00978DF882
:1037B0000060294301978DF801206A46FFF70AFF50
:1037C0000028B6D084F80390277084F80180FDF7B4
:1037D0002FFE2061ADE70000000000001001002472
:1037E00000FD00111FB5002400940194029403947D
:1037F000FDF7A8FE01258DF80C501F208DF808005C
:1038000087218DF809108DF80D5068468DF800500D
:103810008DF80A408DF80E408DF8014001948DF826
:103820000B408DF80F40FDF75FFE0420FDF798FE7A
:10383000FDF70CFEFFF7ACFDFFF798FBFFF760FB11
:10384000FFF72AFBFFF7D2FB5E4F00205E4EA1463A
:1038500006EB40113B5C0B700C754C758C758C61E4
:10386000CC61401C0628F2DB002258480123114697
:103870000095FDF72FF808B172B6FEE70120009021
:103880000022034652481146FDF724F808B172B6EB
:10389000FEE74E48FDF787FC4D48FDF784FC4B489A
:1038A00000220121FCF79EFF494800220121FCF77C
:1038B00099FF45486021D438FCF790FD42486021CB
:1038C0007438FCF78BFD00F0EDF93220FCF778FF3F
:1038D00000F096F8DFF8F0A000252F464FF0060B19
:1038E000AAF1140AFDF7A4FD0446002006EB4011DE
:1038F0000A7D2AB18A69A21A642A01D981F8149032
:10390000401C0628F2DB9AF8000060B1DAF80C10CF
:103910005046611A642906D90223C370012280F837
:1039200000904270046100F0BDF9601BB0F57A7F31
:103930002CD95FF0000025464FF4FA7106EB4012D7
:1039400093693BB19369E21A8A4203D8401C062866
:10395000F4DB1BE000203A18B2FBFBF30BFB13284F
:1039600006EB481293691BB19269A21A8A4209D9DF
:10397000404600F04FF808F10108B8FBFBF10BFBE3
:10398000118703E0401CC0B20628E4D30E4A4FF66C
:10399000FF7000906023D43A0E4802F16001FFF7F7
:1039A000CBF80D48017919B18AF8019080F804909C
:1039B0000548D438FFF792FE03486021D438FCF75D
:1039C0000DFD8FE7103E0008240100242C02002486
:1039D000CC0200246C0300240000002401EE100A35
:1039E00070EEC01ADFED050AB8EE411A61EE811AD9
:1039F00081EEA01A31EE000A7047000000FF7F47F9
:103A000010B50024204600F005F8641C062CF9DBF4
:103A100010BD000026492DE9FC41095C0C46084612
:103A2000FFF7C8FD234A00250095702644EA0201ED
:103A3000019528228DF800200F466A468DF8016016
:103A4000FFF7C8FD0220FCF7BBFE2046FFF7B2FDE2
:103A500001954FF001088DF8048026230095394622
:103A60008DF805506A468DF800308DF806508DF8B7
:103A700001608DF80750FFF7ADFD0220FCF7A0FEB6
:103A80002046FFF797FD0CA10D4F6A46D1E900369D
:103A900044EA0701CDE900368DF806808DF807501D
:103AA000FFF798FDBDE8FC410220FCF789BE00004D
:103AB000103E000800FD001201020304050600008C
:103AC00000FD0018054A01460020135C8B4204D01B
:103AD000401C0628F9DB4FF0FF307047103E00080D
:103AE0002DE9F047C0F304670D46112F04464FF04F
:103AF000010AC0F30726C0F30549C0F381584CD032
:103B0000022F01D0182F46D13046FFF7DBFF01000E
:103B100041D42F482F4A4461C770036902EB411416
:103B20005B1C036128886B88A988EA88267040BAE4
:103B30005FBA4EBA55BADFED280A9FED280AFFF7A3
:103B40004DFF84ED010ADFED260A9FED260A384677
:103B5000FFF744FF84ED020AF3EE010ABBEE010A0F
:103B60003046FFF73BFF00EE905A84ED030AB2EEB9
:103B7000041AB8EE600AC0EE010AC4ED040A84F823
:103B8000159084F8168084F814A0FDF751FCA0610C
:103B9000E069401CE061BDE8F0870E4C143C2178E0
:103BA00028880029F7D0A178B142F4D1A1888142B8
:103BB000F1D1686800EE100A84ED020AFDF738FCC6
:103BC00000212061E170217084F801A0E3E700008A
:103BD0000000002424010024B81E4941B81E49C138
:103BE00000003042000030C2F0B5C9B0FDF720FC43
:103BF000054672B6294A5FF0000018AC02EB40138C
:103C00001E7804EB4011401C06280E7093ED010A4B
:103C100081ED010A93ED020A81ED020A93ED030A98
:103C200081ED030A93ED040A81ED040A1E7D0E75F1
:103C30005E7D4E759E7D8E759E698E61DB69CB6162
:103C4000DCDB62B660216846FCF7C8FB14495A20E9
:103C50008DF80000B1238DF8013003226F46C8882B
:103C6000401CC8800026ADF802000195CDF85C200C
:103C7000C6EBC60004EB46112A4607EB40000830AD
:103C8000FFF7DEFC761C062EF2DB04486022694654
:103C90007438FCF771FB49B0F0BD0000240100242A
:103CA0000000002430B5174C99B0174D607810B360
:103CB00060216846FCF792FB5B208DF80000B12183
:103CC0008DF80110A0788DF80200E0788DF80300DF
:103CD000A088ADF8040094ED020A8DED020A206977
:103CE000602269460390A4F16000FCF745FB0120C7
:103CF000287119B030BD0020287119B0BDE83040DE
:103D0000FFF772BF100100240000002400EE100A2B
:103D1000BDEE401A11EE100A70470EF1020E2EF0A1
:103D2000030E5EF8044B244204D44FEA4102B2F180
:103D30007F4F11D84FEA4003B3F17F4F0CD80ED11B
:103D40004FEAD07CB2F17F4F0CEB4C0C0CF1020C23
:103D500008BF4CEBD17C04E04FF0080C01E04FEAC7
:103D6000D17C0CEB4C0324FA03F404F00704B4F107
:103D7000040C06D20EEB840CBDE810404CF0010C94
:103D80006047DFE80CF0070802024FF00040A0F5A2
:103D9000800010BD0846420018BFD2F1807288BF73
:103DA00000F0004010BD4FF04070E1EE100A704787
:103DB0005FEA400C5FEA1C6CBCF17F0314D4D3F1C2
:103DC000170240F31C804FF0010C0CFA02FCACF11E
:103DD00001030340B3EB5C0220EA030008BF10EAD2
:103DE0000C0F88BF60447047B3F1FF3F28BF5FEA04
:103DF000002C00F0004088BF40F07E507047BCF1BE
:103E0000FF0FB8BF704710B5FFF787FF40DBB6BEA6
:103E1000313233414243000000010203040506072A
:103E2000080C1014182030400000000000000000B2
:103E30000000000000000000000000000100000081
:103E40000200000003000000040000000000000069
:103E5000050000000000000000000000000000005D
:103E6000060000000000000000000000000000004C
:103E70000700000000000000010203040102030427
:103E800006070809A43E00080000002450000000B6
:103E9000D4020008F43E000850000024080A000084
:103EA000F002000800000000000000000000000018
:103EB0000000000000000000000000000000000002
:103EC00000000000000000000000000000000000F2
:103ED00000000000000000000000000000000000E2
:103EE0000100000010000000000000000090D0035E
:043EF0000090D0036B
:040000050800029954
:00000001FF
